:100000000C9414080C9458080C9458080C94580834
:100010000C9458080C9458080C9458080C945808E0
:100020000C9458080C9458080C9407100C94D91090
:100030000C94E9200C9458080C9458080C94580817
:100040000C9458080C9458080C9458080C945808B0
:100050000C9458080C9450210C9458080C9458088F
:100060000C9458080C9458080C9458080C94580890
:100070000C9458080C9458080C9458080C94580880
:100080000C9458080C9458080C9458080C94580870
:100090000C9458080C9458080C9458080C94580860
:1000A0000C9458080C9458080C9458083E11601190
:1000B0004B1260114B12A211C5114B121A122D12C4
:1000C00078157815A615A615FB15371692189218EF
:1000D0004F169218461746170218161892188018CD
:1000E0005C2A842A85286D2B6D2B112A6D2B6D2B94
:1000F000B02A6D2BC32A382B6D2B6D2B6D2B6D2BDE
:100100000D2BF42A6D2BDD2A6D2B9D2A6D2B6D2B6B
:10011000672B672B672B672B672B672B672B672B4F
:10012000672B652B6D2B652B6D2B6D2B6D2B6D2B25
:100130006D2B6D2B6D2B6D2B6D2B6D2B6D2B652B07
:100140006D2B6D2B112AF229692B692B692B692BD9
:10015000692B692B692B692B692B692B692B692BFF
:100160004A2B6D2B702A01E101330233012602264E
:1001700002E1012C022C0000C0C0C0C0C0C0C0C041
:10018000C0C0C0C0C0C0C0C0C0C0C0C0C0C0C0C06F
:10019000C0C0C0C0C0C0C0C0C0C0C0C0C0C0C0C05F
:1001A000C0C0C0C0C0C0C0C0C00A00253031366267
:1001B000003A200025303258000A722F6320303177
:1001C00032333435363738394142434445460A00E4
:1001D0000A002530325800626F756E6365213A203F
:1001E000005B735D004B6579626F617264207374AC
:1001F0006172742E0A0055534220636F6E66696700
:10020000757265642E0A005B575D005B535D005B91
:10021000525D005B445D005B435D000E0350006C6B
:100220000061006E0063006B00000018036A00614B
:100230000063006B00680075006D0062006500726D
:1002400000740000000403090409028D0005010088
:10025000A03209040000010301010009211101007D
:1002600001223F000705810308000A09040100017B
:1002700003010200092111010001224D000705823E
:100280000308000A0904020001030000000921110B
:100290000100012236000705830308000A09040350
:1002A00000020300000009211101000122200007C3
:1002B000058403200001070504032000010904044C
:1002C000000103000000092111010001223900078B
:1002D0000585031000011201100100000008EDFE69
:1002E000606001000102000105010906A101050786
:1002F00019E029E715002501950875018102050817
:100300001901290595057501910295017503910162
:1003100005071900297715002501957875018102D7
:10032000C00631FF0974A1010975150025FF95204C
:10033000750881020976150025FF95207508910240
:10034000C005010980A101850216010026B7001A27
:1003500001002AB700751095018100C0050C090144
:10036000A1018503160100269C021A01002A9C02A5
:10037000751095018100C005010902A1010901A1C3
:10038000000509190129051500250195057501814B
:100390000295017503810105010930093115812597
:1003A0007F95027508810609381581257F950175AD
:1003B000088106050C0A38021581257F950175080C
:1003C0008106C0C005010906A101050719E029E75A
:1003D00015002501950875018102950175088101B7
:1003E0000508190129059505750191029501750307
:1003F00091010507190029FF150025FF95067508CD
:100400008100C00A002530325820006B6579626F88
:100410006172645F7265706F72743A20000A002521
:10042000303258006B6579626F6172645F73657416
:100430005F6C65643A200064656C5F6B65795F6230
:1004400069743A2063616E27742064656C3A2025D4
:100450003032580A006164645F6B65795F62697469
:100460003A2063616E2774206164643A202530323B
:10047000580A00646F6E652E0A00626F6F676D61C7
:10048000676963207363616E3A202E2E2E20002947
:100490000A002575002F002575005D2800256400E1
:1004A0002000256400200025640020002564007CD5
:1004B0000025303258006D6F7573656B6579205B70
:1004C00062746E7C782079207620685D2872657071
:1004D0002F61636C293A205B000A002575006D6B63
:1004E0005F776865656C5F74696D655F746F5F6D7C
:1004F0006178203D20000A002575006D6B5F7768EC
:1005000065656C5F6D61785F7370656564203D2023
:10051000000A002575006D6B5F74696D655F746F0F
:100520005F6D6178203D20000A002575006D6B5FCE
:100530006D61785F7370656564203D20000A002559
:1005400075006D6B5F696E74657276616C203D201D
:10055000000A002575006D6B5F64656C6179203D54
:1005600020000A002575006D6B5F776865656C5F1C
:1005700074696D655F746F5F6D6178203D20000A5E
:10058000002575006D6B5F776865656C5F6D6178E0
:100590005F7370656564203D20000A002575006D5D
:1005A0006B5F74696D655F746F5F6D6178203D206E
:1005B000000A002575006D6B5F6D61785F73706573
:1005C0006564203D20000A002575006D6B5F696E33
:1005D00074657276616C203D20000A002575006DFF
:1005E0006B5F64656C6179203D20000A0025750011
:1005F000363A206D6B5F776865656C5F74696D6511
:100600005F746F5F6D61783A20000A0025750035D0
:100610003A206D6B5F776865656C5F6D61785F73BD
:10062000706565643A20000A00257500343A206D33
:100630006B5F74696D655F746F5F6D61783A200000
:100640000A00257500333A206D6B5F6D61785F732A
:10065000706565643A20000A00257500323A206D05
:100660006B5F696E74657276616C286D73293A20D0
:10067000000A00257500313A206D6B5F64656C617E
:1006800079282A31306D73293A20000A0A2D2D2D40
:100690002D2D204D6F7573656B65792050617261EA
:1006A0006D6574657273202D2D2D2D2D0A003E2051
:1006B000002575004D003F00736574206465666118
:1006C000756C742076616C7565732E0A000A0025BE
:1006D000750073656C656374656420706172616D2B
:1006E000657465723A2000433E20000A51756974B2
:1006F000204D6F7573656B657920436F6E736F6CFA
:10070000650A0053656520687474703A2F2F656E12
:100710002E77696B6970656469612E6F72672F77D8
:10072000696B692F4D6F7573655F6B6579730A002F
:100730000A002575002C20776865656C3D002575DD
:100740000077686572652064656C74613A20637532
:1007500072736F723D000A7370656564203D20649A
:10076000656C7461202A206D61785F7370656564C3
:10077000202A2028726570656174202F2074696DAD
:10078000655F746F5F6D6178290A007067646F77C9
:100790006E3A0964656372656173652070617261A8
:1007A0006D6574657273282D3130290A0070677584
:1007B000703A09696E637265617365207061726178
:1007C0006D6574657273282B3130290A00646F7768
:1007D0006E3A096465637265617365207061726168
:1007E0006D6574657273282D31290A0075703A0998
:1007F000696E63726561736520706172616D6574A5
:10080000657273282B31290A00643A0973657420D4
:1008100064656661756C742076616C7565730A0039
:10082000703A097072696E7420706172616D6574DE
:100830006572730A00363A0973656C656374206DDE
:100840006B5F776865656C5F74696D655F746F5F1A
:100850006D61780A00353A0973656C656374206DC3
:100860006B5F776865656C5F6D61785F73706565F8
:10087000640A00343A0973656C656374206D6B5FBC
:1008800074696D655F746F5F6D61780A00333A0952
:1008900073656C656374206D6B5F6D61785F7370F9
:1008A0006565640A00323A0973656C656374206D8E
:1008B0006B5F696E74657276616C286D73290A00CE
:1008C000313A0973656C656374206D6B5F64656CA8
:1008D0006179282A31306D73290A004553432F71FD
:1008E0003A09717569740A000A0A2D2D2D2D2D20E3
:1008F0004D6F7573656B657920506172616D6574BC
:100900006572732048656C70202D2D2D2D2D0A00E9
:100910003F004D303E000A456E746572204D6F7584
:1009200073656B657920436F6E736F6C650A000A9F
:100930005175697420436F6E736F6C65204D6F64E1
:10094000650A00433E20000A0025750020746F20D0
:10095000002575007377697463685F646566617507
:100960006C745F6C617965723A20006D3A096D6F45
:100970007573656B65790A004553432F713A0971A8
:100980007569740A000A0A2D2D2D2D2D20436F6ED6
:10099000736F6C652048656C70202D2D2D2D2D0AF0
:1009A00000506175733A096A756D7020746F20622A
:1009B0006F6F746C6F616465720A00436170733AA3
:1009C000094C6F636B204B6579626F6172642843D9
:1009D00068696C642050726F6F66290A0050536317
:1009E000723A09706F77657220646F776E2F726547
:1009F0006D6F74652077616B652D75700A00342FFB
:100A000046343A0973776974636820746F204C61C7
:100A100079657234200A00332F46333A09737769B7
:100A200074636820746F204C6179657233200A000A
:100A3000322F46323A0973776974636820746F20E5
:100A40004C6179657232200A00312F46313A0973C0
:100A5000776974636820746F204C61796572312006
:100A60000A00302F4631303A097377697463682081
:100A7000746F204C6179657230200A006E3A0974F7
:100A80006F67676C65204E4B524F0A00653A0970DC
:100A900072696E7420656570726F6D20636F6E662B
:100AA00069670A00733A097072696E742073746121
:100AB0007475730A00743A097072696E74207469EF
:100AC0006D657220636F756E740A00763A097072F4
:100AD000696E7420646576696365207665727369F2
:100AE0006F6E202620696E666F0A006D3A09746F7A
:100AF00067676C65206D6F757365206465627567E7
:100B00000A006B3A09746F67676C65206B657962E0
:100B10006F6172642064656275670A00783A0974CF
:100B20006F67676C65206D617472697820646562B7
:100B300075670A00643A09746F67676C65206465BD
:100B400062756720656E61626C650A00633A0965CB
:100B50006E74657220636F6E736F6C65206D6F6469
:100B6000650A000A0A2D2D2D2D2D20436F6D6D6114
:100B70006E642048656C70202D2D2D2D2D0A000AE5
:100B8000002575002E6C6576656C3A20000A0025FC
:100B900075002E656E61626C653A20000A00253092
:100BA0003258006261636B6C696768745F636F6E73
:100BB0006669672E7261773A20000A002575002E5B
:100BC0006E6B726F3A20000A002575002E737761F4
:100BD000705F6261636B736C6173685F6261636BAA
:100BE00073706163653A20000A002575002E7377E3
:100BF00061705F67726176655F6573633A20000AB2
:100C0000002575002E6E6F5F6775693A20000A0037
:100C10002575002E737761705F72616C745F726707
:100C200075693A20000A002575002E737761705FA0
:100C30006C616C745F6C6775693A20000A002575F9
:100C4000002E636170736C6F636B5F746F5F636FB3
:100C50006E74726F6C3A20000A002575002E73774F
:100C600061705F636F6E74726F6C5F636170736CE1
:100C70006F636B3A20000A0025303258006B6579AB
:100C80006D61705F636F6E6669672E7261773A207F
:100C9000000A002575002E6D6F7573653A20000AF5
:100CA000002575002E6B6579626F6172643A2000D1
:100CB0000A002575002E6D61747269783A20000A69
:100CC000002575002E656E61626C653A20000A0091
:100CD000253032580064656275675F636F6E6669C0
:100CE000672E7261773A20000A00257500646566F8
:100CF00061756C745F6C617965723A20003F004EDB
:100D00004B524F3A2064697361626C65640A004E0D
:100D10004B524F3A20656E61626C65640A006B65E8
:100D200079626F6172645F69646C653A2025580A64
:100D3000006B6579626F6172645F70726F746F636C
:100D40006F6C3A2025580A00686F73745F6B657981
:100D5000626F6172645F6C65647328293A2025585C
:100D60000A000A0A2D2D2D2D2D20537461747573E0
:100D7000202D2D2D2D2D0A0074696D65725F636F16
:100D8000756E743A202530346C580A004743433A54
:100D900020342E382E31204156522D4C4942433AB0
:100DA00020312E382E3073766E204156525F4152DC
:100DB00043483A20617672350A004F5054494F4EED
:100DC000533A204C55464120424F4F544D414749DC
:100DD00043204D4F5553454B45592045585452419A
:100DE0004B455920434F4E534F4C4520434F4D4D9B
:100DF000414E44204E4B524F20343039360A004287
:100E000055494C443A20653935386261632D64692F
:100E1000727479202830353A32323A3539204D61B2
:100E2000722031392032303135290A005649443A8E
:100E300020307846454544286A61636B68756D6269
:100E400065727429205049443A2030783630363063
:100E500028506C616E636B29205645523A203078D9
:100E6000303030310A00444553433A20742E6D2E01
:100E70006B2E206B6579626F617264206669726D9A
:100E80007761726520666F722074686520506C61AE
:100E90006E636B0A000A0A2D2D2D2D2D20566572CA
:100EA00073696F6E202D2D2D2D2D0A000A444542A9
:100EB00055473A206D6F7573652064697361626C84
:100EC00065642E0A000A44454255473A206D6F7505
:100ED000736520656E61626C65642E0A000A444584
:100EE0004255473A206B6579626F6172642064698C
:100EF0007361626C65642E0A000A44454255473AA4
:100F0000206B6579626F61726420656E61626C65E9
:100F1000642E0A000A44454255473A206D617472B6
:100F200069782064697361626C65642E0A000A4402
:100F3000454255473A206D617472697820656E614B
:100F4000626C65642E0A000A44454255473A2065A2
:100F50006E61626C65642E0A000A44454255473A48
:100F60002064697361626C65642E0A006E6F742080
:100F7000737570706F727465642E0A000A0A4A7580
:100F80006D7020746F20626F6F746C6F6164657236
:100F90002E2E2E2000433E20000A456E74657220DE
:100FA000436F6E736F6C65204D6F64650A00556EFC
:100FB0006C6F636B65642E0A004C6F636B65642E07
:100FC0000A006565636F6E6669673A0A006261636D
:100FD0006B6C6967687420737465703A2025750AB4
:100FE000006261636B6C6967687420746F67676C1B
:100FF000653A2025750A006261636B6C69676874E5
:101000002064656372656173653A2025750A006224
:1010100061636B6C6967687420696E637265617384
:10102000653A2025750A000011241FBECFEFDAE0D3
:10103000DEBFCDBF04B603FE24C08091E1019091D4
:10104000E201A091E301B091E4018730904BA74009
:10105000B04BB9F41092E1011092E2011092E30159
:101060001092E40114BE84B7877F84BF88E10FB675
:10107000F89480936000109260000FBEE0E0F8E307
:10108000099511E0A0E0B1E0E0EAFEE502C00590BC
:101090000D92A833B107D9F721E0A8E3B1E001C070
:1010A0001D92A13EB207E1F70E94490D0C944E2F0C
:1010B0000C940000FF93EF93E091BF01F091C00109
:1010C000309709F00995EF91FF910895FC01859102
:1010D000803011F0EFDFFBCF0895FF27E0E230E230
:1010E00047FF0CC0419597FF09C0EDE260957095F0
:1010F00080959095611D711D811D911D27FF02C076
:10110000219530E350E2AA27660F771F881F991FA9
:10111000AA1FA41710F0A41B63955A95A9F7AA302B
:1011200008F0A95FA05DAF93F39561157105810586
:10113000910541F7ED3211F4EF93F395F21718F49E
:101140003F93F395FBCF8F91B5DFFA95E1F70895C3
:10115000E991F9918591803021F0853219F0AADF6B
:10116000F9CF089520E0E89455915532C1F35033FA
:1011700011F4689455915A3348F4505390F3220F68
:10118000022E220F220F200D250FF4CF0EF42195F1
:1011900089919991533619F3533729F1533559F100
:1011A000BC0188279927E8945C3621F489919991AC
:1011B00068945591543639F446EF7EF077FF0DC0B0
:1011C0008FEF9FEF0AC055374AE039F0583540E1BC
:1011D00021F0523642E009F00895FF93EF937DDF4E
:1011E000EF91FF91B7CFFF93EF93FC018191803096
:1011F000B9F360DFFBCFFF93EF9368DFF1CFDF93AD
:10120000CF93CDB7DEB72596A3DFCF91DF910895B9
:1012100008950895FC018281882319F086E691E003
:10122000089580E090E008959CE0799FF0011124FA
:1012300090E3899FE00DF11D1124E60FF11DE758A1
:10124000FE4F84910895E82FF0E0EE0FFF1FE95064
:10125000F04085919491089584B1877784B985B1E0
:10126000886885B98AB18C7F8AB98BB183608BB964
:1012700008950E942C0984B1887884B985B1876764
:1012800085B957985F9A80B38D7080BB81B3826FA8
:1012900081BB1092410110924001109239011092CD
:1012A0003801109243011092420110923B011092BA
:1012B0003A01109245011092440110923D011092A2
:1012C0003C01109247011092460110923F0110928A
:1012D0003E010895BF92CF92DF92EF92FF920F935B
:1012E0001F93CF93DF93C8E3D1E0D12CCC24C394D8
:1012F000E5E0BE2EF2EDEF2EF1E0FF2E82E0D816F3
:1013000061F093E0D91661F081E0D81619F0239AC4
:101310002B9808C0279A2F9805C0509A589802C059
:10132000519A599890EA9A95F1F783B186958695E6
:101330008C25082F017010E0199B03C080E090E01D
:1013400002C082E090E09C01202B312B189B03C04F
:1013500080E090E002C084E090E0822B932B799BA8
:1013600003C060E070E002C068E070E09C01262BE2
:10137000372B7C9B03C040E050E002C040E150E0CE
:10138000242B352B7D9B03C080E090E002C080E2DF
:1013900090E0282B392B7E9B03C080E090E002C0B8
:1013A00080E490E0282B392B8FB1992787FD909509
:1013B000809590958827990F881F99279695982F43
:1013C000882797958795282B392B1E9B03C080E093
:1013D00090E002C080E091E0282B392B1D9B03C0D8
:1013E00080E090E002C080E092E0282B392B1C9B2B
:1013F00003C080E090E002C080E094E0282B392B0D
:1014000089B1992787FD9095809590958827990FA8
:10141000881F9927982F8827990F990F990F282BA4
:10142000392B888199818217930741F13983288369
:1014300080910001882301F18091BD0180FF04C0EB
:1014400087ED91E00E9466088091BD0180FF0CC08D
:10145000809100011F928F93FF92EF920E94FF08EC
:101460000F900F900F900F908091BD0180FF04C0EE
:1014700080ED91E00E946608B09200010E942C0964
:10148000D394229684E0D81239CF8091000188232A
:1014900061F1815080930001882339F08FE99FE04A
:1014A0000197F1F700C0000020C0809138019091B1
:1014B0003901909341018093400180913A019091CC
:1014C0003B01909343018093420180913C019091B4
:1014D0003D01909345018093440180913E0190919C
:1014E0003F01909347018093460181E0DF91CF91C6
:1014F0001F910F91FF90EF90DF90CF90BF900895D4
:10150000E82FF0E0EE0FFF1FE05CFE4F808191813D
:101510000895CF92DF92EF92FF920F931F93CF9394
:10152000DF9389EB91E00E946608C0E4EC2EC1E0F5
:10153000FC2EC0E0D0E014EBC12E11E0D12E0BEA5E
:1015400011E0DF93CF93DF92CF920E94FF0881EBEF
:1015500091E00E946608F701819191917F010E94BC
:1015600090209F938F931F930F930E94FF0889EA07
:1015700091E00E94660821968DB79EB708960FB637
:10158000F8949EBF0FBE8DBFC430D105D1F6DF9158
:10159000CF911F910F91FF90EF90DF90CF90089522
:1015A00081FF03C06E9A769A08956E987698089592
:1015B000811106C080918000877F8093800008950C
:1015C0009091800098609093800090E0982F8827F9
:1015D0009295907F8F6F9F6090938D0080938C0089
:1015E000089580915A0108959091D701943009F09F
:1015F0004DC09091E9009F702091EC0020FF02C047
:1016000020E801C020E0292B94E09093E90090911C
:10161000EB0090FF38C09091EE0097FF34C090919E
:101620004901992321F09091E80095FF2CC0109278
:10163000490196E03091E80035FD15C03091D701A1
:10164000343009F53091EB0035FD1DC0915021F487
:1016500081E08093490117C0EFE9FFE03197F1F78E
:1016600000C00000E7CF8093F1008091E80085FD85
:1016700005C08091E8008E778093E8002F7020935A
:10168000E90080E008952F702093E9008FEF08951E
:10169000CF93DF9300D01F92CDB7DEB72091D70153
:1016A000243019F523E029839B838A832093E90062
:1016B0008FEF9091E800815095FD06C095ED9A95C9
:1016C000F1F700008111F5CF8091E80085FF0DC092
:1016D00040E050E063E070E0CE0101960E94040E0D
:1016E0008091E8008E778093E8000F900F900F9024
:1016F000DF91CF910895CF93DF9300D01F92CDB7A4
:10170000DEB72091D701243021F522E029839B8385
:101710008A8383E08093E9008FEF9091E800815005
:1017200095FD06C095ED9A95F1F700008111F5CF72
:101730008091E80085FF0DC040E050E063E070E07C
:10174000CE0101960E94040E8091E8008E7780936E
:10175000E8000F900F900F90DF91CF9108952091A6
:10176000D7012430F1F422E02093E9002FEF3091EB
:10177000E800215035FD06C035ED3A95F1F700003F
:101780002111F5CF2091E80025FF0BC040E050E08B
:1017900065E070E00E94040E8091E8008E778093EF
:1017A000E8000895CF93DF93EC018091D701843056
:1017B00009F043C080910C018823C1F085E080933B
:1017C000E9008FEF9091E800815095FD06C095E10A
:1017D0009A95F1F700008111F5CF8091E80085FF1F
:1017E0002CC040E050E060E170E017C081E08093E1
:1017F000E9008FEF9091E800815095FD06C095EDCE
:101800009A95F1F700008111F5CF8091E80085FFEE
:1018100014C040E050E068E070E0CE010E94040E89
:101820008091E8008E778093E80080E1FE01AAE4D1
:10183000B1E001900D928A95E1F7DF91CF91089583
:1018400087E192E00E9466088091D601811109C06B
:101850000E948C0F0E94E90F8091E20084608093C7
:10186000E200089583E192E00E9466081092D6019A
:1018700008958FE092E00C9466088BE092E00E945D
:1018800066080C94090987E092E00E9466080C94AF
:10189000E5208091D701843049F58091E9008F706F
:1018A0009091EC0090FF02C090E801C090E0982B6E
:1018B00084E08093E9008091EB0080FF14C0809168
:1018C000EE0087FF10C08091E80085FF03C01092F2
:1018D000F100F9CF8091E80080FF05C08091E80019
:1018E0008E778093E8009F709093E900089542E01E
:1018F00061EC81E00E94060F42E061EC82E00E9410
:10190000060F42E061EC83E00E94060F46E261ECC4
:1019100084E00E94060F42E161EC85E00C94060F22
:101920008091D901833009F455C030F4813071F0D1
:10193000823009F495C008958A3009F481C08B3053
:1019400009F460C0893009F0A3C020C08091D8019B
:10195000813A09F09DC08091E800877F8093E8007C
:101960008091DC019091DD01892B21F060E080E025
:1019700090E003C060E18AE491E070E00E944D0EC7
:101980008091E8008B778093E80008958091D801DA
:10199000813209F07DC08091DC019091DD010097DA
:1019A00019F0049709F074C08091E800877F809354
:1019B000E8008091E80082FD05C08091D701811187
:1019C000F8CF66C08091F10080935A018091E800C1
:1019D0008B775AC08091D801813A09F059C0809123
:1019E000DC019091DD01892B09F052C08091E80063
:1019F000877F8093E8008091E80080FFFCCF809192
:101A00000B013DC08091D801813209F041C0809125
:101A1000DC019091DD01892BD9F58091E800877F69
:101A20008093E8000E943B0F9091DA0181E09111D0
:101A300001C080E080930B0180930C010C94B318DB
:101A40008091D801813221F58091E800877F8093D1
:101A5000E8000E943B0F8091DB01809348010895CC
:101A60008091D801813AA1F48091E800877F80932A
:101A7000E8008091E80080FFFCCF809148018093CE
:101A8000F1008091E8008E778093E8000C943B0F82
:101A9000089584B7877F84BF88E10FB6F894809358
:101AA0006000109260000FBE90E080E80FB6F894DE
:101AB00080936100909361000FBE0E948C0F0E9482
:101AC000E90F8091E20084608093E20084EF9AE065
:101AD0000E94262078948091D7018430E1F786EF28
:101AE00091E00E9466080E94F51281E091E00E9458
:101AF000631285EE91E00E9466088091D7018530DF
:101B000089F481EE91E00E9466080E94AA208091EB
:101B1000D501882391F30E94D020882371F30E947D
:101B2000EE0DEBCF0E942513E8CF292F332723306A
:101B30003105A9F06CF42130310509F442C022309E
:101B4000310509F043C08DE890E029E432E042C05D
:101B500021323105C9F02232310519F137C09927F8
:101B60008130910541F08230910541F0892B71F56A
:101B7000E5E4F2E005C0EBE2F2E002C0EBE1F2E006
:101B8000849190E09F0126C0653000F5E62FF0E0DB
:101B9000EE0FFF1FEC5DFE4F2081318189E090E068
:101BA00019C0653098F4E62FF0E0DF01AA0FBB1FE3
:101BB000A65EBE4F2D913C91EB5EFE4F808190E082
:101BC00009C082E190E026ED32E004C080E090E0C0
:101BD00020E030E0FA0131832083089580E189BD5F
:101BE00082E189BD09B400FEFDCF8091D8008F7DD0
:101BF0008093D8008091E00082608093E000809123
:101C0000E00081FDFCCF0895CF92DF92EF92FF922A
:101C10000F931F93CF93DF937C018B01EA010E9406
:101C20005C0F811131C0209731F088819981081BA8
:101C3000190BE80EF91EC12CD12C0115110519F153
:101C40008091E80085FD14C08091E8008E77809334
:101C5000E800209741F0888199818C0D9D1D998322
:101C6000888385E011C00E945C0F882331F30CC08B
:101C7000F70181917F018093F10001501109FFEF7D
:101C8000CF1ADF0ADACF80E0DF91CF911F910F9159
:101C9000FF90EF90DF90CF9008952091DE0130917A
:101CA000DF012617370748F06115710539F42091D7
:101CB000E8002E772093E80001C0B901FC0120E084
:101CC00061157105A9F18091D7018823E9F185306B
:101CD000E9F18091E80083FD35C08091E80082FF42
:101CE00006C08091E80082FF26C080E008958091C0
:101CF000E80080FFE5CF2091F3008091F20090E0B2
:101D0000922B6115710551F08830910538F42191BD
:101D10002093F100615071090196F3CF21E00897FB
:101D200009F020E08091E8008E778093E800C8CF2A
:101D30002111C9CFD6CF8091D701882329F08530D2
:101D400081F604C081E0089582E0089583E008955B
:101D50002091DE013091DF012617370748F0611529
:101D6000710539F42091E8002E772093E80001C036
:101D7000B901FC0120E061157105C1F18091D70125
:101D8000882309F43FC0853009F43EC08091E80003
:101D900083FD36C08091E80082FF06C08091E80094
:101DA00082FF27C080E008958091E80080FFE3CFA4
:101DB0002091F3008091F20090E0922B6115710563
:101DC00059F08830910540F424912093F100319628
:101DD000615071090196F2CF21E0089709F020E0E7
:101DE0008091E8008E778093E800C5CF2111C6CF9F
:101DF000D5CF8091D701882329F0853079F604C0AA
:101E000081E0089582E0089583E00895982F973047
:101E100058F59093E900981739F07091EC002091F3
:101E2000ED005091F00003C0242F762F50E021FFE9
:101E300019C03091EB003E7F3093EB003091ED0004
:101E40003D7F3093ED003091EB0031603093EB003B
:101E50007093EC002093ED005093F0002091EE0081
:101E600027FF07C09F5FD3CF8F708093E90081E089
:101E7000089580E008958091D80187FD05C0809184
:101E8000E80080FF0EC012C08091E80082FD05C00E
:101E90008091D7018111F8CF08958091E8008B7768
:101EA00008C08091D7018111EACF08958091E800A0
:101EB0008E778093E80008958091E4009091E5008A
:101EC00045E62091EC0020FF21C02091E80020FD94
:101ED00021C02091D701222389F0253089F020915B
:101EE000EB0025FD0FC02091E4003091E50028179C
:101EF000390739F3415041F0C901E3CF82E0089539
:101F000083E0089581E0089584E008952091E80039
:101F100022FFDFCF80E008950E94FA0F0E94021096
:101F2000E0EEF0E0808181608083E8EDF0E0808188
:101F30008F77808319BCA7EDB0E08C918E7F8C9356
:101F400080818F7E80831092D60108950F931F9316
:101F5000CF93DF930E94FA0F0E940210C8EDD0E0E9
:101F600088818F77888388818068888388818F7D46
:101F7000888319BC1092D7011092D3011092D50119
:101F80001092D40100EE10E0F80180818B7F8083F5
:101F900088818160888342E060E080E00E94060FD3
:101FA000E1EEF0E080818E7F8083E2EEF0E08081E0
:101FB00081608083808188608083F80180818E7F4A
:101FC0008083888180618883DF91CF911F910F91F9
:101FD0000895E8EDF0E080818F7E8083E7EDF0E00A
:101FE00080818160808384E082BF81E08093D6011C
:101FF0000C94A60FE8EDF0E080818E7F8083109234
:10200000E20008951092DA001092E10008951F9204
:102010000F920FB60F9211242F933F934F935F931C
:102020006F937F938F939F93AF93BF93EF93FF93A0
:102030008091E10082FF0BC08091E20082FF07C027
:102040008091E1008B7F8093E1000E94490C809198
:10205000DA0080FF1FC08091D80080FF1BC08091F4
:10206000DA008E7F8093DA008091D90080FF0DC066
:1020700080E189BD82E189BD09B400FEFDCF81E028
:102080008093D7010E94200C05C019BC1092D70183
:102090000E94320C8091E10080FF19C08091E20023
:1020A00080FF15C08091E2008E7F8093E2008091D6
:1020B000E20080618093E2008091D800806280938A
:1020C000D80019BC85E08093D7010E943D0C809117
:1020D000E10084FF30C08091E20084FF2CC080E1E9
:1020E00089BD82E189BD09B400FEFDCF8091D80091
:1020F0008F7D8093D8008091E1008F7E8093E100F6
:102100008091E2008F7E8093E2008091E200816006
:102110008093E2008091D301882311F084E007C00E
:102120008091E30087FF02C083E001C081E08093DB
:10213000D7010E94430C8091E10083FF29C0809168
:10214000E20083FF25C08091E100877F8093E1005A
:1021500082E08093D7011092D3018091E1008E7FBD
:102160008093E1008091E2008E7F8093E200809175
:10217000E20080618093E20042E060E080E00E9443
:10218000060F8091F00088608093F0000E94390C67
:10219000FF91EF91BF91AF919F918F917F916F913F
:1021A0005F914F913F912F910F900FBE0F901F9015
:1021B00018951F920F920FB60F9211242F933F93F1
:1021C0004F935F936F937F938F939F93AF93BF933F
:1021D000CF93EF93FF93C091E900CF708091EC0013
:1021E0001092E9008091F000877F8093F00078944E
:1021F0000E9415111092E9008091F0008860809390
:10220000F000C093E900FF91EF91CF91BF91AF91A2
:102210009F918F917F916F915F914F913F912F91FE
:102220000F900FBE0F901F9018951F93CF93DF93C1
:10223000CDB7DEB7AA970FB6F894DEBF0FBECDBFFD
:10224000E8EDF1E08091F100819321E0E03EF207BA
:10225000C9F70E94900C8091E80083FF1CC1209177
:10226000D8013091D901832F90E08A30910508F090
:1022700012C1FC01EA5AFF4F0C94032F203881F061
:10228000223809F008C18091DC018F708093E90049
:102290008091EB0085FB882780F91092E90006C049
:1022A0008091D4019091D501911182609091E800C4
:1022B000977F9093E8008093F1001092F100C5C0E1
:1022C000822F8D7F09F0E7C0222319F0223061F0C0
:1022D000E2C08091DA01813009F0DDC0333009F0CD
:1022E00080E08093D50128C08091DA01811124C05B
:1022F0002091DC012F7009F4CEC02093E900809179
:10230000EB0080FF19C08091EB00333011F4806244
:1023100011C080618093EB0081E090E0022E01C04B
:10232000880F0A94EAF78093EA001092EA008091FD
:10233000EB0088608093EB001092E9008091E80048
:10234000877F86C02111A7C01091DA011F77809185
:10235000E3008078812B8093E3008091E800877F01
:102360008093E8000E943B0F8091E80080FFFCCF43
:102370008091E30080688093E300112311F083E0F3
:1023800001C082E08093D70186C02058223008F037
:1023900082C08091DA019091DB018C3D23E09207AD
:1023A00079F583E08A838AE289834FB7F894DE0166
:1023B000139620E03EE051E2E32FF0E05093570007
:1023C000E49120FF03C0E295EF703F5FEF708E2F26
:1023D00090E0EA3010F0C79601C0C0968D939D93AF
:1023E0002F5F243149F74FBF8091E800877F8093AA
:1023F000E8006AE270E0CE0101960E944D0E14C022
:10240000AE014F5F5F4F6091DC010E94950D009718
:1024100009F441C02091E800277F2093E800BC0127
:1024200089819A810E94A80E8091E8008B77809321
:10243000E80031C0203879F58091E800877F8093EB
:10244000E8008091D3018093F1008091E8008E77BD
:102450008093E8000E943B0F1EC021111CC0909188
:10246000DA019230C0F48091E800877F8093E80021
:102470009093D3010E943B0F8091D301811104C03E
:102480008091E30087FF02C084E001C081E0809377
:10249000D7010E94770C8091E80083FF0AC08091E9
:1024A000E800877F8093E8008091EB008062809352
:1024B000EB00AA960FB6F894DEBF0FBECDBFDF913A
:1024C000CF911F9108959093600180935F010895CB
:1024D00080915F01909160010895E0915F01F0911A
:1024E0006001309721F00190F081E02D099480E0A7
:1024F0000895FF920F931F93CF93DF938C01E09188
:102500005F01F0916001309799F10280F381E02D35
:1025100009958091BD0182FF2BC080FF04C08BE034
:1025200094E00E946608E80180E1F82E05E014E0DE
:102530008091BD0180FF0BC088811F928F931F93F4
:102540000F930E94FF080F900F900F900F90FA9436
:102550002196F110EDCF8091BD0180FF09C083E08D
:1025600094E0DF91CF911F910F91FF900C9466083A
:10257000DF91CF911F910F91FF900895E0915F013E
:10258000F0916001309721F00480F581E02D0994ED
:10259000089520915D0130915E018217930771F0DB
:1025A00090935E0180935D01E0915F01F091600185
:1025B000309721F00680F781E02D0994089520914D
:1025C0005B0130915C018217930771F090935C017D
:1025D00080935B01E0915F01F0916001309721F001
:1025E0000084F185E02D099408950E9412210E9433
:1025F00039090E94DF210C94E92CCF93C82F8091D8
:10260000BD0182FF1EC080FF04C084E294E00E94EE
:1026100066088091BD0180FF0CC01F92CF932FE10F
:1026200034E03F932F930E94FF080F900F900F907C
:102630000F908091BD0180FF04C08DE194E00E9465
:1026400066088C2FCF910C94D00A5F926F927F9284
:102650008F929F92AF92BF92CF92DF92EF92FF92B2
:102660000F931F93CF93DF93CDB7DEB72A970FB6A3
:10267000F894DEBF0FBECDBF0E946A0992E6C92E54
:1026800091E0D92E00E010E0AA24A394B12C502EA2
:10269000802F0E94800A3C01F601E190F1906F01C9
:1026A000E826F926E114F104B1F40F5F1F4F04305E
:1026B000110569F78FEF89838A831B820E941B2192
:1026C0008160782F9D838C8349815A816B818D81B4
:1026D0000E94DE133AC08091BD0181FD0E94890AEB
:1026E00020E030E04501022E02C0880C991C0A94BB
:1026F000E2F7C4018E219F21892B09F12E835F828D
:102700006820792081E0672809F480E088870E94AA
:102710001B218160782F9A8789874E815F81688528
:102720008A850E94DE13F801EE0FFF1FEE59FE4F5F
:1027300080819181882599259183808306C02F5FB0
:102740003F4F2C30310571F6B0CF0E945B251091C0
:1027500061010E946D121817D9F00E946D128093CA
:1027600061012A960FB6F894DEBF0FBECDBFDF9190
:10277000CF911F910F91FF90EF90DF90CF90BF907E
:10278000AF909F908F907F906F905F900C94FD1210
:102790002A960FB6F894DEBF0FBECDBFDF91CF9162
:1027A0001F910F91FF90EF90DF90CF90BF90AF906F
:1027B0009F908F907F906F905F900895CF93DF935D
:1027C000CDB7DEB72B970FB6F894DEBF0FBECDBFE7
:1027D0004F83588769877A878B87DE01119686E059
:1027E000FD0111928A95E9F785E0FE013796019087
:1027F0000D928A95E1F749815A816B817C818D81A7
:102800009E810E947B1B2B960FB6F894DEBF0FBEF5
:10281000CDBFDF91CF910895CF93C82F882309F4BE
:10282000C1C0823859F40E946D1281FDBBC089E39A
:102830000E94161E0E94EA1E89E30CC0833879F4B8
:102840000E946D1280FDAEC083E50E94161E0E949C
:10285000EA1E83E50E94631ECF910C94EA1E843821
:1028600059F40E946D1282FD9DC087E40E94161EDD
:102870000E94EA1E87E4EECF8CEF8C0F813A48F479
:102880008C2F0E94792B81118DC08C2F0E94161ED7
:10289000E3CF80E28C0F883048F4C77081E001C03C
:1028A000880FCA95EAF70E94B11ED6CF8BE58C0F30
:1028B000833078F4C53A29F0C63A31F482E890E0E2
:1028C00005C081E890E002C083E890E0CF910C94CD
:1028D000C91288E58C0F833108F064C0C83A39F119
:1028E000C93A41F1CA3A49F1CB3A51F1CC3A59F1DE
:1028F000CD3A61F1C03B69F1CE3A71F1CF3A79F14D
:10290000C13B81F1C23B89F1C33B91F1C43B99F1D9
:10291000C53BA1F1C63BA9F1C73BB1F1C83BB9F139
:10292000C93BC1F1CA3BC9F58AE292E038C082EEE8
:1029300090E035C089EE90E032C08AEE90E02FC082
:1029400085EB90E02CC086EB90E029C087EB90E00F
:1029500026C08CEC90E023C08DEC90E020C083E892
:1029600091E01DC08AE891E01AC082E991E017C0A9
:1029700084E991E014C081E292E011C083E292E028
:102980000EC084E292E00BC085E292E008C086E2CD
:1029900092E005C087E292E002C080E090E0CF9133
:1029A0000C94DF12CF910895882309F44BC082382C
:1029B00059F40E946D1281FF45C089E30E94161EE2
:1029C0000E94EA1E89E30CC0833871F40E946D12E4
:1029D00080FF38C083E50E94161E0E94EA1E83E530
:1029E0000E94631E0C94EA1E843859F40E946D12F2
:1029F00082FF28C087E40E94161E0E94EA1E87E418
:102A0000EFCF9CEF980F913A58F390E2980F9830DF
:102A100050F4877091E001C0990F8A95EAF7892FE9
:102A20000E94B71EDFCF9BE5980F933020F480E023
:102A300090E00C94C912885A833120F480E090E031
:102A40000C94DF120895882321F00E94B11E0C948B
:102A5000EA1E0895882321F00E94B71E0C94EA1EF6
:102A60000895CF92DF92EF92FF920F931F93CF932F
:102A7000DF93CDB7DEB728970FB6F894DEBF0FBE51
:102A8000CDBF8C0185E0F801DE01119601900D9219
:102A90008A95E1F7F80140813181F2802581229504
:102AA0002F7083819481892B31F03F3F31F481E095
:102AB0004F3F19F403C081E001C080E080FD32C3C4
:102AC00049833A8389819A812F830E94D41D9E83F2
:102AD00088870E94D31D0E94A61C4E81E42FE29598
:102AE000EF70F0E0E05AFF4F2F8168850C94032FC0
:102AF000842F807F142F1F70882311F01295107F70
:102B0000FF2059F0112309F458C2812F68870E94D1
:102B1000C11E0E94EA1E688550C2862F0E94D414EE
:102B2000112309F4FFC2812F0E94C71E28960FB6F9
:102B3000F894DEBF0FBECDBFDF91CF911F910F91F3
:102B4000FF90EF90DF90CF900C94EA1E342F307FEF
:102B5000842F8F70303211F08295807F662319F0B8
:102B6000613009F12AC0FF20A1F0222381F1213038
:102B700071F528960FB6F894DEBF0FBECDBFDF917A
:102B8000CF911F910F91FF90EF90DF90CF900C9419
:102B9000D11E222319F0213009F4C4C28E830E9471
:102BA000D41E8E818EC1FF2021F0263008F0BAC2DB
:102BB0000EC0253008F0B6C284C1FF20C1F0222328
:102BC00031F0F801958190FFF8C19F7095832896A8
:102BD0000FB6F894DEBF0FBECDBFDF91CF911F912E
:102BE0000F91FF90EF90DF90CF900C94231522234C
:102BF00009F467C1F6C1242F26952695237030E08D
:102C00002115310521F021303105C9F08BC2FF209B
:102C100021F0862F942F937002C080E090E02896D8
:102C20000FB6F894DEBF0FBECDBFDF91CF911F91DD
:102C30000F91FF90EF90DF90CF900C94C912FF207E
:102C400021F0862F942F937002C080E090E02896A8
:102C50000FB6F894DEBF0FBECDBFDF91CF911F91AD
:102C60000F91FF90EF90DF90CF900C94DF12862FA2
:102C7000FF2019F00E94E12302C00E9449242896F7
:102C80000FB6F894DEBF0FBECDBFDF91CF911F917D
:102C90000F91FF90EF90DF90CF900C94CE24842F73
:102CA000837009F076C0F1103DC2262F229526953B
:102CB0002770220F220F862F8F70C82ED12CE12C67
:102CC000F12C022E04C0CC0CDD1CEE1CFF1C0A945F
:102CD000D2F764FF10C06FE070E080E090E004C0C5
:102CE000660F771F881F991F2A95D2F760957095F8
:102CF0008095909503C060E070E0CB01242F26956D
:102D000026952370422F50E042305105D1F04330D8
:102D1000510559F16C297D298E299F294130510592
:102D200041F128960FB6F894DEBF0FBECDBFDF91FC
:102D3000CF911F910F91FF90EF90DF90CF900C9467
:102D4000CB1C6C297D298E299F2928960FB6F894D3
:102D5000DEBF0FBECDBFDF91CF911F910F91FF90CE
:102D6000EF90DF90CF900C94E51C0E94CB1CC70124
:102D7000B60128960FB6F894DEBF0FBECDBFDF9127
:102D8000CF911F910F91FF90EF90DF90CF900C9417
:102D9000B11CFF2019F0842F817001C08695882313
:102DA00009F4C0C1262F229526952770220F220FE5
:102DB000862F8F70C82ED12CE12CF12C022E04C04E
:102DC000CC0CDD1CEE1CFF1C0A94D2F764FF10C073
:102DD0006FE070E080E090E004C0660F771F881F0E
:102DE000991F2A95D2F7609570958095909503C0AC
:102DF00060E070E0CB01242F269526952370422FAA
:102E000050E042305105D1F04330510559F16C2961
:102E10007D298E299F294130510541F128960FB611
:102E2000F894DEBF0FBECDBFDF91CF911F910F9100
:102E3000FF90EF90DF90CF900C949F1D6C297D291F
:102E40008E299F2928960FB6F894DEBF0FBECDBFFE
:102E5000DF91CF911F910F91FF90EF90DF90CF9076
:102E60000C94B91D0E949F1DC701B60128960FB68C
:102E7000F894DEBF0FBECDBFDF91CF911F910F91B0
:102E8000FF90EF90DF90CF900C94851D603F49F14B
:102E900018F4603E48F48CC0623F09F451C0E0F180
:102EA000633F09F461C084C0162F1F70842F8F7197
:102EB000FF2021F00E941E1D812F89CE0E943F1D00
:102EC000812F28960FB6F894DEBF0FBECDBFDF91DD
:102ED000CF911F910F91FF90EF90DF90CF900C94C6
:102EE0002A15FF20A9F0253008F01CC1842F8F710E
:102EF00028960FB6F894DEBF0FBECDBFDF91CF91FD
:102F00001F910F91FF90EF90DF90CF900C94641D74
:102F1000263008F007C1EACFFF20A1F0842F8F717F
:102F200028960FB6F894DEBF0FBECDBFDF91CF91CC
:102F30001F910F91FF90EF90DF90CF900C941E1D8A
:102F4000FF2061F3842F8F7128960FB6F894DEBFAF
:102F50000FBECDBFDF91CF911F910F91FF90EF90EA
:102F6000DF90CF900C943F1DFF2091F0842F8F7144
:102F700028960FB6F894DEBF0FBECDBFDF91CF917C
:102F80001F910F91FF90EF90DF90CF900C94091D4F
:102F900028960FB6F894DEBF0FBECDBFDF91CF915C
:102FA0001F910F91FF90EF90DF90CF900C94FF1C3A
:102FB000FF20A1F0222309F4B1CF862F28960FB667
:102FC000F894DEBF0FBECDBFDF91CF911F910F915F
:102FD000FF90EF90DF90CF900C940C14222309F413
:102FE000B1CF862F28960FB6F894DEBF0FBECDBFA7
:102FF000DF91CF911F910F91FF90EF90DF90CF90D5
:103000000C94D4144F70C8010E940A0928960FB678
:10301000F894DEBF0FBECDBFDF91CF911F910F910E
:10302000FF90EF90DF90CF900C94281CF1107AC0A5
:10303000942F9F70492F50E04230510509F440C051
:10304000BCF44115510561F14130510509F06AC0E8
:1030500028960FB6F894DEBF0FBECDBFDF91CF919B
:103060001F910F91FF90EF90DF90CF900C94242D43
:1030700043305105A9F14430510509F053C0862F62
:1030800028960FB6F894DEBF0FBECDBFDF91CF916B
:103090001F910F91FF90EF90DF90CF900C94B12D86
:1030A00028960FB6F894DEBF0FBECDBFDF91CF914B
:1030B0001F910F91FF90EF90DF90CF900C94FA2C1E
:1030C00028960FB6F894DEBF0FBECDBFDF91CF912B
:1030D0001F910F91FF90EF90DF90CF900C94532DA4
:1030E00028960FB6F894DEBF0FBECDBFDF91CF910B
:1030F0001F910F91FF90EF90DF90CF900C94792D5E
:103100004F70C80128960FB6F894DEBF0FBECDBF32
:10311000DF91CF911F910F91FF90EF90DF90CF90B3
:103120000C94252028960FB6F894DEBF0FBECDBFB5
:10313000DF91CF911F910F91FF90EF90DF90CF9093
:1031400008950E94CE1E0E94A31E0E94EA1E0E94A5
:10315000FC250E94CE2480E090E00E94C91280E00D
:1031600090E00C94DF120E94BE1E0C94A1180E94E5
:10317000D41D292F22952F7030E02C3031054CF4CE
:103180002A3031056CF4225031092230310570F4B7
:1031900007C02C30310531F02F30310519F006C051
:1031A00081E0089593FB882780F9089580E00895D1
:1031B000CF93DF9300D000D01F92CDB7DEB70F9032
:1031C0000F900F900F900F90DF91CF910895CF93B4
:1031D000DF9300D000D000D0CDB7DEB726960FB673
:1031E000F894DEBF0FBECDBFDF91CF9108951F933E
:1031F000CF93DF93C0916A0116E080916B01C817ED
:1032000099F0D0E01C9FF0011D9FF00D1124E459AE
:10321000FE4F4081518162817381848195810E943A
:10322000E7182196C770E9CFDF91CF911F910895DC
:1032300040919C0150919D0160919E0170919F0170
:103240008091A0019091A1010C94E718CF938091F7
:10325000A10182958F7009F05FC080919E01882343
:1032600009F45AC020916A01A0916B0160919C0100
:1032700070919D0180919F019091A00131E06F3F7D
:1032800009F030E0B32FC6E02A1709F445C00097D3
:1032900021F07F3F21F44B2F03C041E001C040E00B
:1032A00030E040FD35C0C29FF001C39FF00D1124F6
:1032B000E459FE4F418174132BC04081641328C030
:1032C0004281411125C0438154814817590710F4A8
:1032D00041505109481B590B483C5105C8F4809195
:1032E000A1018F7080618093A10186E0829FF0012F
:1032F000839FF00D1124EF58FE4F80818F70806105
:1033000080838CE991E00E943115CF910C94F718DD
:103310002F5F3F4F2770B8CFCF910895CF92DF92A4
:10332000EF92FF920F931F93CF93DF93CDB7DEB74A
:1033300062970FB6F894DEBF0FBECDBF8C0185E05B
:10334000F801DE011D9601900D928A95E1F7D801F2
:103350004C9111965C91119712966C91129713965D
:10336000ED90FC90149770919C01E0919D0120914B
:103370009F013091A0012115310531F0EF3F31F46B
:1033800081E07F3F19F403C081E001C080E0B82FE5
:10339000B170CB2E80FD6CC1D0909E01DD2009F470
:1033A000F5C0F091A101E216F30638F0C701821BC7
:1033B000930B883C910548F09BC0209530952E0DCD
:1033C0003F1D283C310508F093C08F2F807F09F006
:1033D00052C0E51314C0741312C0D62E61110FC071
:1033E000FF70F061F093A1010E9418198CE991E03F
:1033F0000E9431158091A101F80185836CC1EF28ED
:1034000031F05F3F31F481E04F3F19F403C081E0B8
:1034100001C080E080FD03C081E0862701C080E01C
:10342000F82FF170FF2E80FF1CC080916A0120915F
:103430006B0136E0821709F428C190E0389FF00153
:10344000399FF00D1124E459FE4F7181571306C0C6
:103450007081471303C07281671303C001968770A0
:10346000E9CFD62E662309F436C18091A10181608F
:103470008093A10153C0E51308C0741306C0611105
:1034800004C0D8011596FC93AEC04D875E878D852C
:103490009E856A8B0E94B7186A89882329F1D62EE7
:1034A000662311F12091A101822F82958F7090E007
:1034B00002970CF460C080919C0190919D019887C7
:1034C0008F831986FB86EA862C87CE01079651C02A
:1034D000E51731F14D875E878D859E856A8B0E9449
:1034E000B7186A8981112EC0C8010E943115A4C085
:1034F0008F2F807F69F77E2DF98AE88A89890E945B
:10350000D8188CE991E00E943115ECE9F1E086E0F1
:10351000DF011D928A95E9F70E941819D12CDBC0B2
:103520007413D8CF6111D6CFD8011596FC93C8017A
:103530000E943115ECE9F1E086E0DF011D928A95E9
:10354000E9F7C9C0D62E662379F22091A101822F16
:1035500082958F7090E0029774F080919C01909119
:103560009D019A8389831B82FD82EC822E83CE018A
:1035700001960E94311586E0F801ACE9B1E00190B6
:103580000D928A95E1F70E9426196FC0E216F306A4
:1035900028F0C701821B930B9C0104C02095309535
:1035A0002E0D3F1D283C310508F052C0D62E662353
:1035B00009F49ACFE5132CC074132AC08091A1019D
:1035C00080FD1DC0982F92959F70C9F0D801159667
:1035D0008C9315979F3039F09F5F9295907F8F70F5
:1035E000892B15968C93C8010E94311586E0F8014D
:1035F000ACE9B1E001900D928A95E1F736C086E022
:10360000F801ACE9B1E001900D928A95E1F763C051
:103610004D875E878D859E850E94B718882379F037
:1036200086E0F801ACE9B1E001900D928A95E1F7EE
:103630000E9426190E941819DD24D3944CC0809151
:10364000A10181608093A101C8010E94311543C08E
:103650007E2DF98AE88A89890E94D818ECE9F1E080
:1036600086E0DF011D928A95E9F70E94181933C0A0
:10367000662309F439CF4D875E878D859E850E942C
:10368000B718882309F430CFCBCF4D875E878D855F
:103690009E850E94D41D292F22952F7030E0223064
:1036A00031052CF49F7041F0811106C00CC024300C
:1036B00031052CF49F7049F4805E883020F0C801F9
:1036C0000E943115CF2CDC2C06C0D80115969C9198
:1036D000907F91F7F8CF8D2D62960FB6F894DEBFEC
:1036E0000FBECDBFDF91CF911F910F91FF90EF9053
:1036F000DF90CF9008951F93CF93DF93CDB7DEB7C0
:103700002C970FB6F894DEBF0FBECDBF4F835887FE
:1037100069877A878B879C87CE0107960E948E19CE
:103720008823C1F02F8138858A859B85892B31F0CC
:103730003F3F11F080E003C02F3FE1F781E08111AE
:1037400047C04F81588569857A858B859C850E9405
:10375000E7183EC086E0FE013796DE011196019023
:103760000D928A95E1F7FF81E8854A855B854115D1
:10377000510531F0EF3F31F481E0FF3F19F403C010
:1037800081E001C080E080FD23C020916B0130E02A
:10379000C90101968770992760916A0170E08617C8
:1037A0009707F1F1F983EA835D834C8396E0929F5A
:1037B000D001939FB00D1124A459BE4FFE01319644
:1037C00001900D929A95E1F780936B010E94F71892
:1037D00016E080916A0190916B01891779F1189F29
:1037E000C001112484599E4F0E948E19882331F103
:1037F000E0916A011E9FF0011124E459FE4F4081BF
:10380000518162817381848195810E94E718809142
:103810006A0190E001968770992780936A01D9CF59
:103820000E94B31810926B0110926A01ECE9F1E06A
:1038300086E0DF011D928A95E9F7CACF2C960FB674
:10384000F894DEBF0FBECDBFDF91CF911F910895D9
:10385000EF92FF920F931F93CF93DF93FC0100979A
:1038600009F46DC0F12CEE24E394EF0121968491CC
:10387000843740F4843008F053C0813081F08230C6
:1038800021F15DC0853709F445C0B0F19CE7980F80
:10389000903708F054C08F770E94D41443C08F0132
:1038A0000E5F1F4FFE01849190E2980F983050F404
:1038B0008770FE2D01C0FF0F8A95EAF78F2F0E94B7
:1038C000C11E15C00E940C1412C08F010E5F1F4F45
:1038D000FE01849190E2980F983058F48770FE2D85
:1038E00001C0FF0F8A95EAF78F2F0E94C71EE801DB
:1038F00019C00E94D414FBCFCF010296FE01C491DF
:10390000CC2361F0EFE9FFE03197F1F700C0000050
:10391000C150F6CFCF010296FE01F490EC0102C037
:103920000E940C148F2D882341F0EFE9FFE03197BE
:10393000F1F700C000008150F6CFFE0196CFDF9175
:10394000CF911F910F91FF90EF900895089560938C
:10395000A6017093A7018093A8019093A9010C94EC
:10396000A1180F931F930091A6011091A701209118
:10397000A8013091A901062B172B282B392B009376
:10398000A6011093A7012093A8013093A9011F91CC
:103990000F910C94A1180F931F930091A601109101
:1039A000A7012091A8013091A901062317232823FC
:1039B00039230093A6011093A7012093A801309307
:1039C000A9011F910F910C94A1180F931F930091BF
:1039D000A6011091A7012091A8013091A901062705
:1039E0001727282739270093A6011093A7012093B2
:1039F000A8013093A9011F910F910C94A118109266
:103A0000A2011092A3011092A4011092A5010C949E
:103A1000A11841E050E060E070E004C0440F551F81
:103A2000661F771F8A95D2F74093A2015093A30196
:103A30006093A4017093A5010C94A11841E050E09B
:103A400060E070E004C0440F551F661F771F8A9521
:103A5000D2F78091A2019091A301A091A401B0910D
:103A6000A501842B952BA62BB72B8093A2019093B5
:103A7000A301A093A401B093A5010C94A11841E067
:103A800050E060E070E004C0440F551F661F771FD0
:103A90008A95D2F740955095609570958091A201D6
:103AA0009091A301A091A401B091A5018423952335
:103AB000A623B7238093A2019093A301A093A4010E
:103AC000B093A5010C94A11841E050E060E070E0D3
:103AD00004C0440F551F661F771F8A95D2F7809147
:103AE000A2019091A301A091A401B091A501842706
:103AF0009527A627B7278093A2019093A301A093AF
:103B0000A401B093A5010C94A1180F931F930091E9
:103B1000A2011091A3012091A4013091A501062BCF
:103B2000172B282B392B0093A2011093A30120936C
:103B3000A4013093A5011F910F910C94A1180F932C
:103B40001F930091A2011091A3012091A401309133
:103B5000A50106231723282339230093A2011093DC
:103B6000A3012093A4013093A5011F910F910C9400
:103B7000A1180F931F930091A2011091A30120910E
:103B8000A4013091A501062717272827392700937C
:103B9000A2011093A3012093A4013093A5011F91CA
:103BA0000F910C94A1180895CF92DF92EF92FF929B
:103BB0000F931F93CF93DF93EC01C090A601D09099
:103BC000A701E090A801F090A9018091A201909135
:103BD000A301A091A401B091A501C82AD92AEA2A7B
:103BE000FB2A0FE110E0B701A601002E04C0769574
:103BF0006795579547950A94D2F740FF07C0BE01D5
:103C0000802F0E94B21F8130910539F401501109B3
:103C100050F7BE0180E00E94B21FDF91CF911F914B
:103C20000F91FF90EF90DF90CF90089590910C014D
:103C3000992341F1982F9695969596959F3088F403
:103C4000E0910D01F0910E01E90FF11D877021E067
:103C500030E001C0220F8A95EAF78181822B8183AF
:103C600008959091BD0190FF2DC01F928F9385E51F
:103C700094E09F938F930E94FF080F900F900F90F6
:103C80000F90089540910D0150910E0120E030E019
:103C90009FEFFA01E20FF31F6281681799F09F3FCF
:103CA00019F4611101C0922F2F5F3F4F2E30310563
:103CB00081F79F3F39F0FA01E90FF11D97FDFA9561
:103CC00082830895089590910C01992349F1982FCA
:103CD0009695969596959F3090F4E0910D01F09110
:103CE0000E01E90FF11D877021E030E001C0220FC5
:103CF0008A95EAF720958181282321830895909160
:103D0000BD0190FF1FC01F928F9387E394E09F93A4
:103D10008F930E94FF080F900F900F900F900895BF
:103D200040910D0150910E0120E030E0FA01E20FC8
:103D3000F31F9281981301C012822F5F3F4F2E30E4
:103D40003105A1F7089581E090E0E0910D01F09137
:103D50000E01E80FF91F1082019680319105A9F735
:103D600008959091BC01982B9093BC010895809583
:103D70009091BC0198239093BC0108951092BC01CE
:103D800008959091BB01982B9093BB010895809565
:103D90009091BB0198239093BB0108951092BB01B1
:103DA00008958093AA0108951092AA010895409160
:103DB0000D0150910E0120E030E080E0FA01E20FA9
:103DC000F31F918191118F5F2F5F3F4F2F3031058E
:103DD000A9F70895E0910D01F0910E018091BC01C9
:103DE0008083E0910D01F0910E0180819091BB01E3
:103DF000892B80839091AA01992361F0E0910D01B4
:103E0000F0910E018081892B80830E94D71E811141
:103E10001092AA0180910D0190910E010C947912DB
:103E20008B3B60F4883A00F5853AA8F4843088F436
:103E3000813009F055C081E090E00895803E08F49B
:103E40004FC0883E30F0803F08F44AC090E0906553
:103E5000089590E00895853A09F445C0863A09F03E
:103E600045C082E890E40895883A09F442C0893A4E
:103E700009F442C08A3A09F442C08B3A09F442C0BC
:103E80008C3A09F442C08D3A09F442C0803B09F4EF
:103E900042C08E3A09F442C08F3A09F442C0813BD5
:103EA00009F442C0823B09F442C0833B09F442C09A
:103EB000843B09F442C0853B09F442C0863B09F4C7
:103EC00042C0873B09F442C0883B09F442C0893BA9
:103ED00009F442C08A3B09F042C08AE296E40895A0
:103EE00080E090E0089581E890E4089583E890E40C
:103EF000089582EE94E4089589EE94E408958AEE9C
:103F000094E4089585EB94E4089586EB94E4089591
:103F100087EB94E408958CEC94E408958DEC94E49C
:103F2000089583E895E408958AE895E4089582E980
:103F300095E4089584E995E4089581E296E408956E
:103F400083E296E4089584E296E4089585E296E497
:103F5000089586E296E4089587E296E4089580E065
:103F600094E408950E941409803EA8F4803C00F572
:103F7000813309F45CC038F4893209F452C08A32C2
:103F800009F45BC05FC08933B1F08238A1F085339A
:103F900009F441C057C0833E41F128F4803E99F0B6
:103FA000823EB9F04FC0863E31F1873E71F14AC082
:103FB0000E94230908959091D20190FD02C091FFC3
:103FC00041C080EE3FC08091D20180FFFACF89E3EB
:103FD00039C08091D20182FF0CC08091D20184FF50
:103FE00002C080E02FC083EE2DC08091D20182FFFD
:103FF000F4CF82EE27C08091D20183FF0AC0809166
:10400000D20184FDEECF87EE1DC08091D20183FFE7
:10401000F6CF86EE17C08091D20185FF06C089E2F7
:1040200011C08091D20185FFFACF85E30BC080914A
:10403000D20186FF06C08AE205C08091D20186FFC8
:10404000FACF81E30E94101F089508959093C00154
:104050008093BF010895CF92DF92EF92FF920F936A
:104060001F936C01EE24FF24C114D104E104F10478
:1040700021F46B017C0180E001C080E133272F2D0A
:104080001E2D0D2D011511052105310519F0885F33
:104090006801790197018601A4E036952795179567
:1040A0000795AA95D1F7011511052105310519F0DC
:1040B0008C5F6801790197018601F2E036952795BA
:1040C00017950795FA95D1F70115110521053105C9
:1040D00019F08E5F68017901B701A60176956795A1
:1040E00057954795452B462B472B09F08F5F1F911E
:1040F0000F91FF90EF90DF90CF9008958295982FC9
:104100009C7C96959695837344E0849F900111243E
:10411000922B892F8A7A86959575990F892B089508
:104120001F93CF93DF931F92CDB7DEB799830E9481
:104130007E20182F9981892F0E947E20212F30E028
:10414000322F2227A901482BCA010F90DF91CF916E
:104150001F9108958091D701843009F11092BE011A
:1041600020E488E190E00FB6F894A8958093600071
:104170000FBE2093600083B7817F846083BF83B7C5
:10418000816083BF7894889583B78E7F83BF88E1F1
:104190000FB6F89480936000109260000FBE0895EF
:1041A000CF930E9408090E946A090E940909C0E091
:1041B0008C2F0E94800A892B29F4CF5FC430C1F76D
:1041C00080E001C081E0CF9108950E94B3180C9463
:1041D000E92C1F920F920FB60F9211248F939F9389
:1041E000AF93BF938091BE01811113C08091C10133
:1041F0009091C201A091C301B091C4014196A11D4B
:10420000B11D8093C1019093C201A093C301B093EB
:10421000C401BF91AF919F918F910F900FBE0F90EE
:104220001F90189582E084BD93E095BD9AEF97BDED
:1042300080936E0008952FB7F8948091C1019091FA
:10424000C201A091C301B091C4012FBF0895CF92C4
:10425000DF92EF92FF920F931F932FB7F894409144
:10426000C1015091C2016091C3017091C4012FBF7F
:104270006A017B01EE24FF248C0120E030E0C016AF
:10428000D106E206F30610F441505109481B590BC0
:10429000CA011F910F91FF90EF90DF90CF9008958A
:1042A0001F920F920FB60F9211248F939F93AF938B
:1042B000BF938091C1019091C201A091C301B091BF
:1042C000C4010196A11DB11D8093C1019093C2014B
:1042D000A093C301B093C401BF91AF919F918F91FF
:1042E0000F900FBE0F901F9018950E948C0FF8949E
:1042F0002FEF87EA91E6215080409040E1F700C01F
:10430000000087E090EBDC018093E1019093E201F3
:10431000A093E301B093E4012CE088E190E00FB6B4
:10432000F894A895809360000FBE20936000FFCFA3
:10433000CF92DF92EF92FF920F931F93CF93DF9371
:10434000C82ED12C01E010E08D2D0E94800A7C0146
:10435000C0E0D0E098010C2E02C0220F331F0A9457
:10436000E2F72E213F21232B29F42196CC30D105D1
:1043700089F709C06C2F7D2D80E00E941409C812B6
:10438000F4CF81E005C0D39484E0D812DDCF80E083
:10439000DF91CF911F910F91FF90EF90DF90CF9021
:1043A0000895CF93C82F8CE20E949821882321F092
:1043B0008C2FCF910C94982180E0CF910895CF93CA
:1043C0000E943123811102C00E9412238AE794E0E7
:1043D0000E946608C5E6C15049F00E946A098FE351
:1043E0009CE90197F1F700C00000F5CF83E794E066
:1043F0000E94660889E20E94D121811111C18AE2DE
:104400000E94D12181110E94122385E00E94D121B6
:1044100081110E9475210E943C238093BD0187E099
:104420000E94D121882399F18BE10E94D121882318
:1044300051F09091BD0191FB882780F921E08227FE
:1044400080FB91F922C08EE00E94D121882351F097
:104450009091BD0192FB882780F921E0822780FBA3
:1044600092F913C080E10E94D1219091BD0188236F
:1044700041F093FB882780F921E0822780FB93F9A4
:1044800004C0892F809580FB90F99093BD018091A5
:10449000BD010E9440230E944E238093D20180EEF2
:1044A0000E94D121882341F08091D201982F9095CC
:1044B00090FB80F98093D20189E30E94D121882367
:1044C00059F09091D20191FB882780F921E0822751
:1044D00080FB91F99093D20182EE0E94D121882332
:1044E00059F09091D20192FB882780F921E0822730
:1044F00080FB92F99093D20186EE0E94D12188230D
:1045000059F09091D20193FB882780F921E082270E
:1045100080FB93F99093D20183EE0E94D1218823EE
:1045200059F09091D20194FB882780F921E08227ED
:1045300080FB94F99093D20185E30E94D1218823D6
:1045400059F09091D20195FB882780F921E08227CC
:1045500080FB95F99093D20181E30E94D1218823B9
:1045600059F09091D20196FB882780F921E08227AB
:1045700080FB96F99093D20181E10E94D12188239A
:1045800059F09091D20197FB882780F921E082278A
:1045900080FB97F99093D2018091D2010E9452231F
:1045A0008091D20187FB882780F980930C0187E2F4
:1045B0000E94D121C82F8EE10E94D1218111C260B9
:1045C0008FE10E94D1218111C46080E20E94D1213B
:1045D0008111C86081E20E94D1218111C06182E213
:1045E0000E94D1218111C06283E20E94D1218111F8
:1045F000C06484E20E94D121882311F0C06802C007
:10460000CC2329F08C2F0E9449236C2F03C00E94D9
:104610004523682F70E080E090E0CF910C94A71CB8
:10462000CF9108956DEE7EEF80E090E00E94392FEB
:1046300060E082E090E00E942B2F60E083E090E059
:104640000E942B2F60E084E090E00E942B2F60E01E
:1046500085E090E00E942B2F60E086E090E00C94D3
:104660002B2F80E090E00E94252F21E08D3E9E4F71
:1046700009F020E0822F089582E090E00C941D2F35
:10468000682F82E090E00C942B2F83E090E00C9454
:104690001D2F682F83E090E00C942B2F84E090E096
:1046A0000C941D2F682F84E090E00C942B2F86E053
:1046B00090E00C941D2F682F86E090E00C942B2F37
:1046C0008091C70180FF0BC06091120185E0689F57
:1046D000B001112475956795759567952AC081FF7E
:1046E00009C06091120185E0689FB00111247595A1
:1046F00067951FC082FF07C06091120185E0689F27
:10470000B001112416C04091C8014423C9F0609142
:104710001101461788F72091120185E0289F90012A
:104720001124429FC001439F900D112470E00E940C
:10473000EF2E6038710540F46115710539F002C043
:1047400065E070E0862F08958FE7089581E0089571
:104750008091C70180FF08C06091100170E07595DD
:1047600067957595679521C081FF06C0609110011E
:1047700070E07595679519C082FF04C060911001C3
:1047800070E010C08091C8018823C1F060910F01D2
:104790008617A0F790911001989FC001112470E036
:1047A0000E94EF2E6038710528F46115710521F023
:1047B000862F08958FE7089581E0089561E070E005
:1047C000F4CF803F21F40E946023819504C0813F93
:1047D00029F40E9460238093CB010895823F21F445
:1047E0000E946023819504C0833F29F40E946023C6
:1047F0008093CA010895893F19F40E94A82305C037
:104800008A3F31F40E94A82381958093CC010895BA
:104810008B3F21F40E94A823819504C08C3F29F48A
:104820000E94A8238093CD010895843F21F48091B4
:10483000C901816017C0853F21F48091C901826060
:1048400011C0863F21F48091C90184600BC0873F6D
:1048500021F48091C901886005C0883F31F48091BE
:10486000C90180618093C90108958D3F21F4809131
:10487000C70181600BC08E3F21F48091C701826027
:1048800005C08F3F29F48091C70184608093C701E0
:104890000895803F39F48091CB0187FF6CC010925E
:1048A000CB0169C0813F29F48091CB011816BCF37C
:1048B00062C09091CA01823F29F497FF5CC01092B8
:1048C000CA0159C0833F19F41916CCF354C0893F6B
:1048D00041F48091CC0118160CF04DC01092CC011F
:1048E0004AC08A3F29F48091CC0187FF44C0F6CFAB
:1048F0008B3F39F48091CD0187FF3DC01092CD01EF
:104900003AC08C3F29F48091CD011816BCF333C016
:10491000843F21F48091C9018E7F17C0853F21F427
:104920008091C9018D7F11C0863F21F48091C9011A
:104930008B7F0BC0873F21F48091C901877F05C021
:10494000883F31F48091C9018F7E8093C90113C0E3
:104950008D3F21F48091C7018E7F0BC08E3F21F4E3
:104960008091C7018D7F05C08F3F29F48091C701D9
:104970008B7F8093C7018091CA0181110EC0809105
:10498000CB0181110AC08091CC01811106C08091B8
:10499000CD01811102C01092C80108958091BD011E
:1049A00083FF7EC086EB94E00E9466088091C90177
:1049B0001F928F9381EB94E09F938F930E94FF0847
:1049C0008FEA94E00E9466082091CA01822F9927FD
:1049D00087FD90959F932F938CEA94E09F938F93FC
:1049E0000E94FF088AEA94E00E9466082091CB01A9
:1049F000822F992787FD90959F932F9387EA94E0C4
:104A00009F938F930E94FF0885EA94E00E946608B6
:104A10002091CC01822F992787FD90959F932F930A
:104A200082EA94E09F938F930E94FF0880EA94E0CB
:104A30000E9466082091CD01822F992787FD9095CD
:104A40009F932F938DE994E09F938F930E94FF088B
:104A50008AE994E00E9466088091C8011F928F93B2
:104A600087E994E09F938F930E94FF0885E994E083
:104A70000E9466088091C7011F928F9382E994E09B
:104A80009F938F930E94FF088FE894E00E9466082E
:104A90008DB79EB74C960FB6F8949EBF0FBE8DBFD4
:104AA00089EC91E00E94BE120E941B219093C601E6
:104AB0008093C50108951F93CF93DF938091C50123
:104AC0009091C6010E9427214091C801442321F002
:104AD0002091130130E006C0209114015AE0259F77
:104AE000900111248217930708F482C08091CA01B3
:104AF0001091CB01D091CC01C091CD01811107C0A3
:104B0000111105C0D11103C0CC2309F471C04F3F6E
:104B100019F04F5F4093C801181624F40E946023D7
:104B20008093CA018091CA0187FF05C00E9460235B
:104B300081958093CA01111624F40E94602380930A
:104B4000CB018091CB0187FF05C00E946023819536
:104B50008093CB016091CA01662339F11091CB019A
:104B6000112319F1772767FD7095872F972F0E94E2
:104B7000002E23E333E343E35FE30E94642E0E94AD
:104B8000CD2D6093CA01612F772767FD7095872F20
:104B9000972F0E94002E23E333E343E35FE30E9459
:104BA000642E0E94CD2D6093CB011D1624F40E942B
:104BB000A8238093CC018091CC0187FF05C00E947F
:104BC000A82381958093CC011C1624F40E94A8236D
:104BD0008093CD018091CD0187FF05C00E94A8235D
:104BE00081958093CD01DF91CF911F910C94CE24BC
:104BF000DF91CF911F910895E9ECF1E085E0DF01AD
:104C00001D928A95E9F71092C8011092C701089584
:104C100085E899E00E94660888E799E00E946608A6
:104C20008BE699E00C94660888EE98E00E9466088E
:104C30008BED98E00E94660880EC98E00E94660880
:104C400085EA98E00E9466088DE898E00E94660870
:104C500083E798E00E94660885E598E00E94660870
:104C600085E398E00E94660880E298E00E9466086A
:104C700089E098E00E9466088CEE97E00E94660842
:104C80008DEC97E00E9466088DEA97E00E94660826
:104C90008BE897E00E94660886E597E00E94660828
:104CA00081E497E00E9466081F9285E08F938EE36F
:104CB00097E09F938F930E94FF0885E397E00E94FF
:104CC00066081F9281E08F9382E397E09F938F9312
:104CD0000E94FF0880E397E00E9466088DB79EB7A8
:104CE00008960FB6F8949EBF0FBE8DBF83E097E085
:104CF0000C946608833009F459C028F4813061F0BF
:104D0000823079F10895853009F49AC008F473C0AF
:104D1000863009F4BAC0089520911401862F90E0DE
:104D2000820F911D8F3F910520F4620F6093140153
:104D300003C08FEF809314018FED95E00E94660809
:104D4000809114011F928F938CED95E09F938F9328
:104D50000E94FF080F900F900F900F908AED95E042
:104D6000B8C020911301862F90E0820F911D8F3FD4
:104D7000910520F4620F6093130103C08FEF8093BD
:104D800013018BEC95E00E946608809113011F923D
:104D90008F9388EC95E09F938F930E94FF080F906C
:104DA0000F900F900F9086EC95E093C02091120128
:104DB000862F90E0820F911D8F3F910520F4620FA6
:104DC0006093120103C08FEF8093120186EB95E090
:104DD0000E946608809112011F928F9383EB95E0E9
:104DE0009F938F930E94FF080F900F900F900F904A
:104DF00081EB95E06EC020911101862F90E0820F2B
:104E0000911D8F3F910520F4620F6093110103C043
:104E10008FEF809311018FE995E00E9466088091E1
:104E200011011F928F938CE995E09F938F930E94BD
:104E3000FF080F900F900F900F908AE995E049C0FE
:104E400020911001862F90E0820F911D8F3F9105D8
:104E500020F4620F6093100103C08FEF8093100164
:104E600084E895E00E946608809110011F928F935C
:104E700081E895E09F938F930E94FF080F900F9019
:104E80000F900F908FE795E024C020910F01862F9F
:104E900090E0820F911D8F3F910520F4620F609387
:104EA0000F0103C08FEF80930F0187E695E00E940A
:104EB000660880910F011F928F9384E695E09F937F
:104EC0008F930E94FF080F900F900F900F9082E633
:104ED00095E00C946608833009F44DC028F48130C5
:104EE00061F0823049F10895853009F482C008F4F8
:104EF00061C0863009F49CC0089580911401681740
:104F000020F4861B8093140102C01092140186E5E0
:104F100095E00E946608809114011F928F9383E5AB
:104F200095E09F938F930E94FF080F900F900F9032
:104F30000F9081E595E09AC080911301681720F4E5
:104F4000861B8093130102C01092130182E495E046
:104F50000E946608809113011F928F938FE395E062
:104F60009F938F930E94FF080F900F900F900F90C8
:104F70008DE395E07BC080911201681720F4861BB9
:104F80008093120102C0109212018DE295E00E94FE
:104F90006608809112011F928F938AE295E09F9399
:104FA0008F930E94FF080F900F900F900F9088E250
:104FB00095E05CC080911101681720F4861B8093F6
:104FC000110102C01092110186E195E00E9466086D
:104FD000809111011F928F9383E195E09F938F93AE
:104FE0000E94FF080F900F900F900F9081E195E0C5
:104FF0003DC080911001681720F4861B809310013A
:1050000002C0109210018BEF94E00E94660880911C
:1050100010011F928F9388EF94E09F938F930E94CB
:10502000FF080F900F900F900F9086EF94E01EC036
:1050300080910F01681720F4861B80930F0102C036
:1050400010920F018EED94E00E94660880910F018E
:105050001F928F938BED94E09F938F930E94FF0894
:105060000F900F900F900F9089ED94E00C946608CC
:10507000CF93C82F84E599E00E9466086091A6014D
:105080007091A7018091A8019091A9010E942B2005
:105090001F928F9321E539E03F932F930E94FF08E1
:1050A0008CE499E00E9466081F92CF9329E439E0CE
:1050B0003F932F930E94FF0887E499E00E946608BF
:1050C00061E070E080E090E004C0660F771F881F09
:1050D000991FCA95D2F70E94A71C8DB79EB7089654
:1050E0000FB6F8949EBF0FBE8DBFCF910C94B3182E
:1050F000CF93482F50E0FA013697E334F10508F0DA
:10510000ECC2E059FF4F0C94032F82EC9FE00E9409
:1051100066088DEE9CE00E9466080E9445231F925F
:105120008F938AEE9CE09F938F930E94FF0888EEF6
:105130009CE00E9466080E943C23C82F85ED9CE0FD
:105140000E9466081F92CF9320ED3CE03F932F937F
:105150000E94FF088EEC9CE00E94660884EC9CE0B4
:105160000E9466088C2F81701F928F9321EC3CE087
:105170003F932F930E94FF088FEB9CE00E946608EC
:1051800085EB9CE00E946608C1FB882780F91F928E
:105190008F9322EB3CE03F932F930E94FF0880EB1C
:1051A0009CE00E94660884EA9CE00E946608C2FBBC
:1051B000882780F91F928F9321EA3CE03F932F9339
:1051C0000E94FF088FE99CE00E94660886E99CE047
:1051D0000E946608C3FBCC27C0F91F92CF9383E9D6
:1051E0009CE09F938F930E94FF0881E99CE00E94BE
:1051F00066080E944E23C82F8DE79CE00E94660837
:105200001F92CF9328E73CE03F932F930E94FF0823
:1052100086E79CE00E9466088DE59CE00E94660897
:105220008C2F81701F928F932AE53CE03F932F9340
:105230000E94FF088DB79EB780960FB6F8949EBF68
:105240000FBE8DBF88E59CE00E94660881E49CE06B
:105250000E946608C1FB882780F91F928F932EE376
:105260003CE03F932F930E94FF088CE39CE00E9458
:1052700066088AE29CE00E946608C2FB882780F9E3
:105280001F928F9327E23CE03F932F930E94FF08E9
:1052900085E29CE00E94660883E19CE00E9466082B
:1052A000C3FB882780F91F928F9320E13CE03F9356
:1052B0002F930E94FF088EE09CE00E94660884E025
:1052C0009CE00E946608C4FB882780F91F928F9398
:1052D00021E03CE03F932F930E94FF088FEF9BE07B
:1052E0000E9466088DEE9BE00E946608C5FB882739
:1052F00080F91F928F932AEE3BE03F932F930E94F9
:10530000FF0888EE9BE00E9466088CEC9BE00E9400
:105310006608C6FB882780F91F928F9329EC3BE033
:105320003F932F930E94FF0887EC9BE00E94660842
:105330008FEB9BE00E946608C7FBCC27C0F91F9249
:10534000CF938CEB9BE09F938F930E94FF088AEB97
:105350009BE00E9466080E945723C82F83EA9BE0C7
:105360000E9466081F92CF932EE93BE03F932F9354
:105370000E94FF088DB79EB780960FB6F8949EBF27
:105380000FBE8DBF8CE99BE00E94660882E99BE01E
:105390000E9466088C2F81701F928F932FE83BE04C
:1053A0003F932F930E94FF088DE89BE00E946608C0
:1053B00084E89BE00E946608C6951F92CF9381E81F
:1053C0009BE09F938F930E94FF088FE79BE00E94D2
:1053D00066088DB79EB708960FB6F8949EBF0FBEAD
:1053E0008DBF1DC00E946812892B79F00E9468123F
:1053F0009093D0018093CF010E94B31880E090E099
:105400000E94631289EB9FE008C08091CF019091C8
:10541000D0010E9463128EEA9FE00E946608C1E0FC
:1054200061C183E69BE00E9466088CE49BE00E94D9
:10543000660884E39BE00E9466088CE19BE00E9482
:10544000660882E09BE00E9466088BEE9AE00E946C
:1054500066088BEC9AE00E94660885EB9AE00E9451
:10546000660884EA9AE00E9466088CE89AE00E9446
:1054700066088CE79AE00E94660882E69AE00E943D
:10548000660889E49AE00E94660880E39AE00E9438
:10549000660887E19AE00E9466088EEF99E00E9414
:1054A00066088DED99E00E9466088BEB99E00E94FA
:1054B000660881EA99E0B1CF8091BD01817F8E7F3E
:1054C0008093BD010E94082689E99FE00E9466083A
:1054D00085E99FE00E94660881E08093CE019FCF1E
:1054E0000E94B3188CE79FE00E9466089FEF23EDAF
:1054F00080E3915020408040E1F700C000000E940E
:1055000075218CE69FE089CF8091BD01C82FC170C5
:1055100080FF09C089E59FE00E9466088091BD0177
:10552000817F8E7F44C087E49FE00E94660880915F
:10553000BD0181608093BD0172CF8091BD0181FB6F
:10554000CC27C0F991E0C927C0FB81F98093BD0148
:10555000CC2319F08EE29FE025C084E19FE05DCF6F
:105560008091BD0182FBCC27C0F991E0C927C0FB27
:1055700082F98093BD01CC2319F089EF9EE012C01F
:105580008DED9EE04ACF8091BD0183FBCC27C0F911
:1055900091E0C927C0FB83F98093BD01CC2351F072
:1055A00085EC9EE00E9466088091BD018160809339
:1055B000BD0198C08CEA9EE030CF85E99EE00E9454
:1055C000660886E69EE00E9466088CE29EE00E94E5
:1055D00066088FEF9DE00E9466088AEB9DE00E94BE
:1055E00066088CE89DE019CF8091C1019091C201BD
:1055F000A091C301B091C401BF93AF939F938F93C8
:1056000088E79DE09F938F930E94FF080F900F9073
:105610000F900F900F900F9002CF82E69DE00E94B6
:1056200066080E946D121F928F9388E49DE09F93FD
:105630008F930E94FF0880910B011F928F9381E34B
:105640009DE09F938F930E94FF08809148011F92D5
:105650008F938EE19DE09F938F930E94FF088DB7FB
:105660009EB70C960FB6F8949EBF0FBE8DBFD7CED7
:105670000E94B318C0910C0181E0C827C0930C01AF
:10568000CC2329F08FE09DE00E9466082BC08FEFAD
:105690009CE0C3CE81E890E00E94C9129FEF21EE0A
:1056A00084E0915020408040E1F700C0000080E09D
:1056B00090E00E94C9129FEF29E688E191502040B6
:1056C0008040E1F700C00000AACE80E003C08D5109
:1056D00001C089530E943828A2CE8DEF9CE00E9421
:1056E0006608C0E08C2FCF91089580E0089580E097
:1056F0000895CF93C82F8091CE01813071F020F0B2
:10570000823009F44EC05DC1A0910D01B0910E012F
:105710008C91823209F057C107C0A0910D01B09160
:105720000E018C91823249F48C2F0E94752B8111CD
:1057300035C08C2F0E94782832C08C2F0E94772B86
:1057400081112CC0C431F1F090F4CB30A1F0C03104
:1057500001F50E94142686E199E00E94660882E124
:1057600099E00E94660882E08093CE0117C0C9329A
:1057700049F0C83371F40E94082683E499E00E943E
:1057800066080CC08FE299E00E9466081092CE0174
:105790001CC180E199E00E94660817C181E0817018
:1057A00016C1C83228F5CE3108F0C0C0CB30A1F107
:1057B000D0F4C73009F0E8C08EE18093140182E391
:1057C000809313018AE08093120184E18093110198
:1057D00088E08093100188E280930F0188EB96E0C7
:1057E0000E946608D6C0C33141F1C431C1F0CCC0BB
:1057F000CB3409F4BEC028F4C93289F0C83361F053
:10580000C3C0C13509F4B3C0C23509F4AEC0CE344B
:1058100009F0BAC06AE0B3C00E941426BAC0109260
:10582000D1018BEE96E00E94660887EE96E00E941A
:10583000660881E08093CE01CAC08BE896E00E94A2
:10584000660886E796E00E946608809114011F9220
:105850008F9383E796E09F938F930E94FF0881E7E1
:1058600096E00E9466088CE596E00E9466088091AA
:1058700013011F928F9389E596E09F938F930E9467
:10588000FF0887E596E00E94660885E496E00E949E
:105890006608809112011F928F9382E496E09F9395
:1058A0008F930E94FF0880E496E00E9466088CE2D5
:1058B00096E00E946608809111011F928F9389E201
:1058C00096E09F938F930E94FF0887E296E00E94E4
:1058D00066088FE096E00E946608809110011F9292
:1058E0008F938CE096E09F938F930E94FF088AE04D
:1058F00096E00E94660880EF95E00E94660880911D
:105900000F011F928F938DEE95E09F938F930E94CE
:10591000FF088BEE95E00E9466088DB79EB748960B
:105920000FB6F8949EBF0FBE8DBF33C0CE51EC2F83
:10593000F0E0E25DFE4F80818093D10182ED96E040
:105940000E9466088091D1011F928F938FEC96E0A0
:105950009F938F930E94FF088DEC96E00E9466084B
:105960000F900F900F900F9014C061E003C061E0A2
:1059700006C06AE08091D1010E947A260AC0809117
:10598000D1010E946B2705C086EB96E00E94660855
:1059900016C084EB96E00E9466088091D1011F92A8
:1059A0008F9381EB96E09F938F930E94FF088EEA7E
:1059B00096E00E9466080F900F900F900F9081E084
:1059C00006C01092CE0180E002C080E0E8CECF9108
:1059D00008950E943123811102C00E9412230E9467
:1059E00057238093E00180FF02C0869501C080E0CC
:1059F0000C94D80A8091E001982F9695292F30E0D9
:105A00002F3031054CF49F5F990F8170892B816095
:105A10008093E0010E945B238091BD0180FF0FC055
:105A20008091E00186951F928F938FE090E19F9384
:105A30008F930E94FF080F900F900F900F9080910E
:105A4000E00186950C94D80A8091E001982F9695F4
:105A500091F09158990F8170892B8093E0018E7F8E
:105A600091E009F490E08091E00190FB80F980934F
:105A7000E0010E945B238091BD0180FF0FC08091F7
:105A8000E00186951F928F9387EF9FE09F938F93FE
:105A90000E94FF080F900F900F900F908091E001EF
:105AA00086950C94D80A8091E001982F909590FBF0
:105AB00080F98093E0010E945B238091BD0180FF0B
:105AC0000FC08091E00181701F928F9381EE9FE063
:105AD0009F938F930E94FF080F900F900F900F904D
